{
  "contractName": "Marketplace",
  "abi": [
    {
      "inputs": [],
      "stateMutability": "nonpayable",
      "type": "constructor"
    },
    {
      "anonymous": false,
      "inputs": [
        {
          "indexed": false,
          "internalType": "address",
          "name": "nftContract",
          "type": "address"
        },
        {
          "indexed": false,
          "internalType": "uint256",
          "name": "tokenId",
          "type": "uint256"
        },
        {
          "indexed": false,
          "internalType": "address",
          "name": "owner",
          "type": "address"
        }
      ],
      "name": "NFTCreated",
      "type": "event"
    },
    {
      "anonymous": false,
      "inputs": [
        {
          "indexed": false,
          "internalType": "address",
          "name": "nftContract",
          "type": "address"
        },
        {
          "indexed": false,
          "internalType": "uint256",
          "name": "tokenId",
          "type": "uint256"
        },
        {
          "indexed": false,
          "internalType": "address",
          "name": "seller",
          "type": "address"
        },
        {
          "indexed": false,
          "internalType": "address",
          "name": "owner",
          "type": "address"
        },
        {
          "indexed": false,
          "internalType": "uint256",
          "name": "price",
          "type": "uint256"
        }
      ],
      "name": "NFTListed",
      "type": "event"
    },
    {
      "anonymous": false,
      "inputs": [
        {
          "indexed": false,
          "internalType": "address",
          "name": "nftContract",
          "type": "address"
        },
        {
          "indexed": false,
          "internalType": "uint256",
          "name": "tokenId",
          "type": "uint256"
        },
        {
          "indexed": false,
          "internalType": "address",
          "name": "seller",
          "type": "address"
        },
        {
          "indexed": false,
          "internalType": "address",
          "name": "owner",
          "type": "address"
        },
        {
          "indexed": false,
          "internalType": "uint256",
          "name": "price",
          "type": "uint256"
        }
      ],
      "name": "NFTSold",
      "type": "event"
    },
    {
      "inputs": [],
      "name": "LISTING_FEE",
      "outputs": [
        {
          "internalType": "uint256",
          "name": "",
          "type": "uint256"
        }
      ],
      "stateMutability": "view",
      "type": "function",
      "constant": true
    },
    {
      "inputs": [
        {
          "internalType": "address",
          "name": "_nftContract",
          "type": "address"
        },
        {
          "internalType": "uint256",
          "name": "_tokenId",
          "type": "uint256"
        },
        {
          "internalType": "uint256",
          "name": "_price",
          "type": "uint256"
        }
      ],
      "name": "listNft",
      "outputs": [],
      "stateMutability": "payable",
      "type": "function",
      "payable": true
    },
    {
      "inputs": [
        {
          "internalType": "address",
          "name": "_nftContract",
          "type": "address"
        },
        {
          "internalType": "uint256",
          "name": "_tokenId",
          "type": "uint256"
        }
      ],
      "name": "createNft",
      "outputs": [],
      "stateMutability": "payable",
      "type": "function",
      "payable": true
    },
    {
      "inputs": [
        {
          "internalType": "address",
          "name": "_nftContract",
          "type": "address"
        },
        {
          "internalType": "uint256",
          "name": "_tokenId",
          "type": "uint256"
        }
      ],
      "name": "buyNft",
      "outputs": [],
      "stateMutability": "payable",
      "type": "function",
      "payable": true
    },
    {
      "inputs": [
        {
          "internalType": "address",
          "name": "_nftContract",
          "type": "address"
        },
        {
          "internalType": "uint256",
          "name": "_tokenId",
          "type": "uint256"
        },
        {
          "internalType": "uint256",
          "name": "_price",
          "type": "uint256"
        }
      ],
      "name": "resellNft",
      "outputs": [],
      "stateMutability": "payable",
      "type": "function",
      "payable": true
    },
    {
      "inputs": [],
      "name": "getListingFee",
      "outputs": [
        {
          "internalType": "uint256",
          "name": "",
          "type": "uint256"
        }
      ],
      "stateMutability": "view",
      "type": "function",
      "constant": true
    },
    {
      "inputs": [],
      "name": "getListedNfts",
      "outputs": [
        {
          "components": [
            {
              "internalType": "address",
              "name": "nftContract",
              "type": "address"
            },
            {
              "internalType": "uint256",
              "name": "tokenId",
              "type": "uint256"
            },
            {
              "internalType": "address payable",
              "name": "seller",
              "type": "address"
            },
            {
              "internalType": "address payable",
              "name": "owner",
              "type": "address"
            },
            {
              "internalType": "uint256",
              "name": "price",
              "type": "uint256"
            },
            {
              "internalType": "bool",
              "name": "listed",
              "type": "bool"
            }
          ],
          "internalType": "struct Marketplace.NFT[]",
          "name": "",
          "type": "tuple[]"
        }
      ],
      "stateMutability": "view",
      "type": "function",
      "constant": true
    },
    {
      "inputs": [],
      "name": "getMyNfts",
      "outputs": [
        {
          "components": [
            {
              "internalType": "address",
              "name": "nftContract",
              "type": "address"
            },
            {
              "internalType": "uint256",
              "name": "tokenId",
              "type": "uint256"
            },
            {
              "internalType": "address payable",
              "name": "seller",
              "type": "address"
            },
            {
              "internalType": "address payable",
              "name": "owner",
              "type": "address"
            },
            {
              "internalType": "uint256",
              "name": "price",
              "type": "uint256"
            },
            {
              "internalType": "bool",
              "name": "listed",
              "type": "bool"
            }
          ],
          "internalType": "struct Marketplace.NFT[]",
          "name": "",
          "type": "tuple[]"
        }
      ],
      "stateMutability": "view",
      "type": "function",
      "constant": true
    },
    {
      "inputs": [],
      "name": "getMyListedNfts",
      "outputs": [
        {
          "components": [
            {
              "internalType": "address",
              "name": "nftContract",
              "type": "address"
            },
            {
              "internalType": "uint256",
              "name": "tokenId",
              "type": "uint256"
            },
            {
              "internalType": "address payable",
              "name": "seller",
              "type": "address"
            },
            {
              "internalType": "address payable",
              "name": "owner",
              "type": "address"
            },
            {
              "internalType": "uint256",
              "name": "price",
              "type": "uint256"
            },
            {
              "internalType": "bool",
              "name": "listed",
              "type": "bool"
            }
          ],
          "internalType": "struct Marketplace.NFT[]",
          "name": "",
          "type": "tuple[]"
        }
      ],
      "stateMutability": "view",
      "type": "function",
      "constant": true
    }
  ],
  "bytecode": "0x6080604052655af3107a400060035534801561001a57600080fd5b50600160008190555033600460006101000a81548173ffffffffffffffffffffffffffffffffffffffff021916908373ffffffffffffffffffffffffffffffffffffffff160217905550611e09806100736000396000f3fe6080604052600436106100865760003560e01c80634ddf4f8f116100595780634ddf4f8f146101285780638d6cb3fb14610144578063ac5105a01461016f578063b8fe6abe1461018b578063c922b17c146101b657610086565b8063047b07bf1461008b5780631f4cc4db146100b65780632b86ae38146100e157806334f5b6241461010c575b600080fd5b34801561009757600080fd5b506100a06101d2565b6040516100ad919061172c565b60405180910390f35b3480156100c257600080fd5b506100cb610505565b6040516100d8919061172c565b60405180910390f35b3480156100ed57600080fd5b506100f66108aa565b604051610103919061175d565b60405180910390f35b610126600480360381019061012191906117d5565b6108b0565b005b610142600480360381019061013d9190611828565b610b0d565b005b34801561015057600080fd5b50610159610de5565b604051610166919061172c565b60405180910390f35b61018960048036038101906101849190611828565b611057565b005b34801561019757600080fd5b506101a0611291565b6040516101ad919061175d565b60405180910390f35b6101d060048036038101906101cb91906117d5565b61129b565b005b606060006101e06002611472565b90506000805b82811015610285573373ffffffffffffffffffffffffffffffffffffffff16600560006001846102169190611897565b815260200190815260200160002060030160009054906101000a900473ffffffffffffffffffffffffffffffffffffffff1673ffffffffffffffffffffffffffffffffffffffff160361027257818061026e906118ed565b9250505b808061027d906118ed565b9150506101e6565b5060008167ffffffffffffffff8111156102a2576102a1611935565b5b6040519080825280602002602001820160405280156102db57816020015b6102c86114f2565b8152602001906001900390816102c05790505b5090506000805b848110156104fa573373ffffffffffffffffffffffffffffffffffffffff16600560006001846103129190611897565b815260200190815260200160002060030160009054906101000a900473ffffffffffffffffffffffffffffffffffffffff1673ffffffffffffffffffffffffffffffffffffffff16036104e757600560006001836103709190611897565b81526020019081526020016000206040518060c00160405290816000820160009054906101000a900473ffffffffffffffffffffffffffffffffffffffff1673ffffffffffffffffffffffffffffffffffffffff1673ffffffffffffffffffffffffffffffffffffffff168152602001600182015481526020016002820160009054906101000a900473ffffffffffffffffffffffffffffffffffffffff1673ffffffffffffffffffffffffffffffffffffffff1673ffffffffffffffffffffffffffffffffffffffff1681526020016003820160009054906101000a900473ffffffffffffffffffffffffffffffffffffffff1673ffffffffffffffffffffffffffffffffffffffff1673ffffffffffffffffffffffffffffffffffffffff168152602001600482015481526020016005820160009054906101000a900460ff1615151515815250508383815181106104cd576104cc611964565b5b602002602001018190525081806104e3906118ed565b9250505b80806104f2906118ed565b9150506102e2565b508194505050505090565b606060006105136002611472565b90506000805b828110156105f1573373ffffffffffffffffffffffffffffffffffffffff16600560006001846105499190611897565b815260200190815260200160002060020160009054906101000a900473ffffffffffffffffffffffffffffffffffffffff1673ffffffffffffffffffffffffffffffffffffffff161480156105ca5750600560006001836105aa9190611897565b815260200190815260200160002060050160009054906101000a900460ff165b156105de5781806105da906118ed565b9250505b80806105e9906118ed565b915050610519565b5060008167ffffffffffffffff81111561060e5761060d611935565b5b60405190808252806020026020018201604052801561064757816020015b6106346114f2565b81526020019060019003908161062c5790505b5090506000805b8481101561089f573373ffffffffffffffffffffffffffffffffffffffff166005600060018461067e9190611897565b815260200190815260200160002060020160009054906101000a900473ffffffffffffffffffffffffffffffffffffffff1673ffffffffffffffffffffffffffffffffffffffff161480156106ff5750600560006001836106df9190611897565b815260200190815260200160002060050160009054906101000a900460ff165b1561088c57600560006001836107159190611897565b81526020019081526020016000206040518060c00160405290816000820160009054906101000a900473ffffffffffffffffffffffffffffffffffffffff1673ffffffffffffffffffffffffffffffffffffffff1673ffffffffffffffffffffffffffffffffffffffff168152602001600182015481526020016002820160009054906101000a900473ffffffffffffffffffffffffffffffffffffffff1673ffffffffffffffffffffffffffffffffffffffff1673ffffffffffffffffffffffffffffffffffffffff1681526020016003820160009054906101000a900473ffffffffffffffffffffffffffffffffffffffff1673ffffffffffffffffffffffffffffffffffffffff1673ffffffffffffffffffffffffffffffffffffffff168152602001600482015481526020016005820160009054906101000a900460ff16151515158152505083838151811061087257610871611964565b5b60200260200101819052508180610888906118ed565b9250505b8080610897906118ed565b91505061064e565b508194505050505090565b60035481565b6002600054036108f5576040517f08c379a00000000000000000000000000000000000000000000000000000000081526004016108ec906119f0565b60405180910390fd5b600260008190555060008111610940576040517f08c379a000000000000000000000000000000000000000000000000000000000815260040161093790611a5c565b60405180910390fd5b6003543414610984576040517f08c379a000000000000000000000000000000000000000000000000000000000815260040161097b90611ac8565b60405180910390fd5b8273ffffffffffffffffffffffffffffffffffffffff166323b872dd3330856040518463ffffffff1660e01b81526004016109c193929190611af7565b600060405180830381600087803b1580156109db57600080fd5b505af11580156109ef573d6000803e3d6000fd5b505050506000600560008481526020019081526020016000209050338160020160006101000a81548173ffffffffffffffffffffffffffffffffffffffff021916908373ffffffffffffffffffffffffffffffffffffffff160217905550308160030160006101000a81548173ffffffffffffffffffffffffffffffffffffffff021916908373ffffffffffffffffffffffffffffffffffffffff16021790555060018160050160006101000a81548160ff021916908315150217905550818160040181905550610ac06001611480565b7fa0c6c0d02d86fdacecbaa5fdf5894bab204e31a778250474108540733a9b8d198484333086604051610af7959493929190611b2e565b60405180910390a1506001600081905550505050565b600260005403610b52576040517f08c379a0000000000000000000000000000000000000000000000000000000008152600401610b49906119f0565b60405180910390fd5b600260008190555060006005600083815260200190815260200160002090508060040154341015610bb8576040517f08c379a0000000000000000000000000000000000000000000000000000000008152600401610baf90611bf3565b60405180910390fd5b60003390508160020160009054906101000a900473ffffffffffffffffffffffffffffffffffffffff1673ffffffffffffffffffffffffffffffffffffffff166108fc349081150290604051600060405180830381858888f19350505050158015610c27573d6000803e3d6000fd5b508373ffffffffffffffffffffffffffffffffffffffff166323b872dd308385600101546040518463ffffffff1660e01b8152600401610c6993929190611c72565b600060405180830381600087803b158015610c8357600080fd5b505af1158015610c97573d6000803e3d6000fd5b50505050600460009054906101000a900473ffffffffffffffffffffffffffffffffffffffff1673ffffffffffffffffffffffffffffffffffffffff166108fc6003549081150290604051600060405180830381858888f19350505050158015610d05573d6000803e3d6000fd5b50808260030160006101000a81548173ffffffffffffffffffffffffffffffffffffffff021916908373ffffffffffffffffffffffffffffffffffffffff16021790555060008260050160006101000a81548160ff021916908315150217905550610d7060016114dc565b7f16f1dbd97e6bf646d429ed186cce832f1f7fd9907814293b83181e9970ab7bd28483600101548460020160009054906101000a900473ffffffffffffffffffffffffffffffffffffffff168434604051610dcf959493929190611ca9565b60405180910390a1505060016000819055505050565b60606000610df36002611472565b90506000610e016001611472565b82610e0c9190611cfc565b905060008167ffffffffffffffff811115610e2a57610e29611935565b5b604051908082528060200260200182016040528015610e6357816020015b610e506114f2565b815260200190600190039081610e485790505b50905060008083111561104d5760005b8481101561104b5760056000600183610e8c9190611897565b815260200190815260200160002060050160009054906101000a900460ff16156110385760056000600183610ec19190611897565b81526020019081526020016000206040518060c00160405290816000820160009054906101000a900473ffffffffffffffffffffffffffffffffffffffff1673ffffffffffffffffffffffffffffffffffffffff1673ffffffffffffffffffffffffffffffffffffffff168152602001600182015481526020016002820160009054906101000a900473ffffffffffffffffffffffffffffffffffffffff1673ffffffffffffffffffffffffffffffffffffffff1673ffffffffffffffffffffffffffffffffffffffff1681526020016003820160009054906101000a900473ffffffffffffffffffffffffffffffffffffffff1673ffffffffffffffffffffffffffffffffffffffff1673ffffffffffffffffffffffffffffffffffffffff168152602001600482015481526020016005820160009054906101000a900460ff16151515158152505083838151811061101e5761101d611964565b5b60200260200101819052508180611034906118ed565b9250505b8080611043906118ed565b915050610e73565b505b8194505050505090565b60026000540361109c576040517f08c379a0000000000000000000000000000000000000000000000000000000008152600401611093906119f0565b60405180910390fd5b60026000819055506110ae60026114dc565b6110b860016114dc565b6040518060c001604052808373ffffffffffffffffffffffffffffffffffffffff1681526020018281526020013373ffffffffffffffffffffffffffffffffffffffff1681526020013373ffffffffffffffffffffffffffffffffffffffff16815260200160008152602001600015158152506005600083815260200190815260200160002060008201518160000160006101000a81548173ffffffffffffffffffffffffffffffffffffffff021916908373ffffffffffffffffffffffffffffffffffffffff1602179055506020820151816001015560408201518160020160006101000a81548173ffffffffffffffffffffffffffffffffffffffff021916908373ffffffffffffffffffffffffffffffffffffffff16021790555060608201518160030160006101000a81548173ffffffffffffffffffffffffffffffffffffffff021916908373ffffffffffffffffffffffffffffffffffffffff1602179055506080820151816004015560a08201518160050160006101000a81548160ff0219169083151502179055509050507f1a73dede2f07e2c770e088c17b98db14bf7fed0bd437c06661462baae49b7cbd82823360405161127d93929190611d30565b60405180910390a160016000819055505050565b6000600354905090565b6002600054036112e0576040517f08c379a00000000000000000000000000000000000000000000000000000000081526004016112d7906119f0565b60405180910390fd5b60026000819055506000811161132b576040517f08c379a000000000000000000000000000000000000000000000000000000000815260040161132290611a5c565b60405180910390fd5b600354341461136f576040517f08c379a000000000000000000000000000000000000000000000000000000000815260040161136690611ac8565b60405180910390fd5b6113796001611480565b60006005600084815260200190815260200160002090508373ffffffffffffffffffffffffffffffffffffffff166323b872dd3330866040518463ffffffff1660e01b81526004016113cd93929190611af7565b600060405180830381600087803b1580156113e757600080fd5b505af11580156113fb573d6000803e3d6000fd5b5050505081816004018190555060018160050160006101000a81548160ff0219169083151502179055507fa0c6c0d02d86fdacecbaa5fdf5894bab204e31a778250474108540733a9b8d19848433308660405161145c959493929190611b2e565b60405180910390a1506001600081905550505050565b600081600001549050919050565b600081600001549050600081116114cc576040517f08c379a00000000000000000000000000000000000000000000000000000000081526004016114c390611db3565b60405180910390fd5b6001810382600001819055505050565b6001816000016000828254019250508190555050565b6040518060c00160405280600073ffffffffffffffffffffffffffffffffffffffff16815260200160008152602001600073ffffffffffffffffffffffffffffffffffffffff168152602001600073ffffffffffffffffffffffffffffffffffffffff168152602001600081526020016000151581525090565b600081519050919050565b600082825260208201905092915050565b6000819050602082019050919050565b600073ffffffffffffffffffffffffffffffffffffffff82169050919050565b60006115c382611598565b9050919050565b6115d3816115b8565b82525050565b6000819050919050565b6115ec816115d9565b82525050565b60006115fd82611598565b9050919050565b61160d816115f2565b82525050565b60008115159050919050565b61162881611613565b82525050565b60c08201600082015161164460008501826115ca565b50602082015161165760208501826115e3565b50604082015161166a6040850182611604565b50606082015161167d6060850182611604565b50608082015161169060808501826115e3565b5060a08201516116a360a085018261161f565b50505050565b60006116b5838361162e565b60c08301905092915050565b6000602082019050919050565b60006116d98261156c565b6116e38185611577565b93506116ee83611588565b8060005b8381101561171f57815161170688826116a9565b9750611711836116c1565b9250506001810190506116f2565b5085935050505092915050565b6000602082019050818103600083015261174681846116ce565b905092915050565b611757816115d9565b82525050565b6000602082019050611772600083018461174e565b92915050565b600080fd5b611786816115b8565b811461179157600080fd5b50565b6000813590506117a38161177d565b92915050565b6117b2816115d9565b81146117bd57600080fd5b50565b6000813590506117cf816117a9565b92915050565b6000806000606084860312156117ee576117ed611778565b5b60006117fc86828701611794565b935050602061180d868287016117c0565b925050604061181e868287016117c0565b9150509250925092565b6000806040838503121561183f5761183e611778565b5b600061184d85828601611794565b925050602061185e858286016117c0565b9150509250929050565b7f4e487b7100000000000000000000000000000000000000000000000000000000600052601160045260246000fd5b60006118a2826115d9565b91506118ad836115d9565b9250827fffffffffffffffffffffffffffffffffffffffffffffffffffffffffffffffff038211156118e2576118e1611868565b5b828201905092915050565b60006118f8826115d9565b91507fffffffffffffffffffffffffffffffffffffffffffffffffffffffffffffffff820361192a57611929611868565b5b600182019050919050565b7f4e487b7100000000000000000000000000000000000000000000000000000000600052604160045260246000fd5b7f4e487b7100000000000000000000000000000000000000000000000000000000600052603260045260246000fd5b600082825260208201905092915050565b7f5265656e7472616e637947756172643a207265656e7472616e742063616c6c00600082015250565b60006119da601f83611993565b91506119e5826119a4565b602082019050919050565b60006020820190508181036000830152611a09816119cd565b9050919050565b7f5072696365206d757374206265206174206c6561737420312077656900000000600082015250565b6000611a46601c83611993565b9150611a5182611a10565b602082019050919050565b60006020820190508181036000830152611a7581611a39565b9050919050565b7f4e6f7420656e6f75676820657468657220666f72206c697374696e6720666565600082015250565b6000611ab2602083611993565b9150611abd82611a7c565b602082019050919050565b60006020820190508181036000830152611ae181611aa5565b9050919050565b611af1816115b8565b82525050565b6000606082019050611b0c6000830186611ae8565b611b196020830185611ae8565b611b26604083018461174e565b949350505050565b600060a082019050611b436000830188611ae8565b611b50602083018761174e565b611b5d6040830186611ae8565b611b6a6060830185611ae8565b611b77608083018461174e565b9695505050505050565b7f4e6f7420656e6f75676820657468657220746f20636f7665722061736b696e6760008201527f2070726963650000000000000000000000000000000000000000000000000000602082015250565b6000611bdd602683611993565b9150611be882611b81565b604082019050919050565b60006020820190508181036000830152611c0c81611bd0565b9050919050565b6000819050919050565b6000611c38611c33611c2e84611598565b611c13565b611598565b9050919050565b6000611c4a82611c1d565b9050919050565b6000611c5c82611c3f565b9050919050565b611c6c81611c51565b82525050565b6000606082019050611c876000830186611ae8565b611c946020830185611c63565b611ca1604083018461174e565b949350505050565b600060a082019050611cbe6000830188611ae8565b611ccb602083018761174e565b611cd86040830186611c63565b611ce56060830185611c63565b611cf2608083018461174e565b9695505050505050565b6000611d07826115d9565b9150611d12836115d9565b925082821015611d2557611d24611868565b5b828203905092915050565b6000606082019050611d456000830186611ae8565b611d52602083018561174e565b611d5f6040830184611ae8565b949350505050565b7f436f756e7465723a2064656372656d656e74206f766572666c6f770000000000600082015250565b6000611d9d601b83611993565b9150611da882611d67565b602082019050919050565b60006020820190508181036000830152611dcc81611d90565b905091905056fea26469706673582212202a94083e1c9fe1e2ebcdc21c2e9434037a995724a86e83d8bd7295a107dd045864736f6c634300080e0033",
  "immutableReferences": {},
  "source": "// SPDX-License-Identifier: MIT\npragma solidity ^0.8.14;\n\nimport \"../node_modules/@openzeppelin/contracts/utils/Counters.sol\";\nimport \"../node_modules/@openzeppelin/contracts/token/ERC721/ERC721.sol\";\nimport \"../node_modules/@openzeppelin/contracts/security/ReentrancyGuard.sol\";\n\ncontract Marketplace is ReentrancyGuard {\n    using Counters for Counters.Counter;\n    Counters.Counter private _nftsSold;\n    Counters.Counter private _nftCount;\n    uint256 public LISTING_FEE = 0.0001 ether;\n    address payable private _marketOwner;\n    mapping(uint256 => NFT) private _idToNFT;\n    struct NFT {\n        address nftContract;\n        uint256 tokenId;\n        address payable seller;\n        address payable owner;\n        uint256 price;\n        bool listed;\n    }\n    event NFTCreated(\n        address nftContract,\n        uint256 tokenId,\n        address owner\n    );\n    event NFTListed(\n        address nftContract,\n        uint256 tokenId,\n        address seller,\n        address owner,\n        uint256 price\n    );\n    event NFTSold(\n        address nftContract,\n        uint256 tokenId,\n        address seller,\n        address owner,\n        uint256 price\n    );\n\n    constructor() {\n        _marketOwner = payable(msg.sender);\n    }\n\n    // List the NFT on the marketplace\n    function listNft(\n        address _nftContract,\n        uint256 _tokenId,\n        uint256 _price\n    ) public payable nonReentrant {\n        require(_price > 0, \"Price must be at least 1 wei\");\n        require(msg.value == LISTING_FEE, \"Not enough ether for listing fee\");\n\n        _nftsSold.decrement();\n\n        NFT storage nft = _idToNFT[_tokenId];\n\n        IERC721(_nftContract).transferFrom(msg.sender, address(this), _tokenId);\n\n        nft.price = _price;\n        nft.listed = true;\n\n        emit NFTListed(\n            _nftContract,\n            _tokenId,\n            msg.sender,\n            address(this),\n            _price\n        );\n    }\n\n    // user create NFT\n    function createNft(\n        address _nftContract,\n        uint256 _tokenId\n    ) public payable nonReentrant {\n        _nftCount.increment();\n        _nftsSold.increment();\n\n        _idToNFT[_tokenId] = NFT(\n            _nftContract,\n            _tokenId,\n            payable(msg.sender),\n            payable(msg.sender),\n            0,\n            false\n        );\n\n        emit NFTCreated(\n            _nftContract,\n            _tokenId,\n            msg.sender\n        );\n    }\n\n    // Buy an NFT\n    function buyNft(address _nftContract, uint256 _tokenId)\n        public\n        payable\n        nonReentrant\n    {\n        NFT storage nft = _idToNFT[_tokenId];\n        require(\n            msg.value >= nft.price,\n            \"Not enough ether to cover asking price\"\n        );\n\n        address payable buyer = payable(msg.sender);\n        payable(nft.seller).transfer(msg.value);\n        IERC721(_nftContract).transferFrom(address(this), buyer, nft.tokenId);\n        _marketOwner.transfer(LISTING_FEE);\n        nft.owner = buyer;\n        nft.listed = false;\n\n        _nftsSold.increment();\n        emit NFTSold(_nftContract, nft.tokenId, nft.seller, buyer, msg.value);\n    }\n\n    // Resell an NFT purchased from the marketplace\n    function resellNft(\n        address _nftContract,\n        uint256 _tokenId,\n        uint256 _price\n    ) public payable nonReentrant {\n        require(_price > 0, \"Price must be at least 1 wei\");\n        require(msg.value == LISTING_FEE, \"Not enough ether for listing fee\");\n\n        IERC721(_nftContract).transferFrom(msg.sender, address(this), _tokenId);\n\n        NFT storage nft = _idToNFT[_tokenId];\n        nft.seller = payable(msg.sender);\n        nft.owner = payable(address(this));\n        nft.listed = true;\n        nft.price = _price;\n\n        _nftsSold.decrement();\n        emit NFTListed(\n            _nftContract,\n            _tokenId,\n            msg.sender,\n            address(this),\n            _price\n        );\n    }\n\n    function getListingFee() public view returns (uint256) {\n        return LISTING_FEE;\n    }\n\n    function getListedNfts() public view returns (NFT[] memory) {\n        uint256 nftCount = _nftCount.current();\n        uint256 unsoldNftsCount = nftCount - _nftsSold.current();\n\n        NFT[] memory nfts = new NFT[](unsoldNftsCount);\n        uint256 nftsIndex = 0;\n        if (unsoldNftsCount > 0) {\n            for (uint256 i = 0; i < nftCount; i++) {\n                if (_idToNFT[i + 1].listed) {\n                    nfts[nftsIndex] = _idToNFT[i + 1];\n                    nftsIndex++;\n                }\n            }\n        }\n        return nfts;\n    }\n\n    function getMyNfts() public view returns (NFT[] memory) {\n        uint256 nftCount = _nftCount.current();\n        uint256 myNftCount = 0;\n        for (uint256 i = 0; i < nftCount; i++) {\n            if (_idToNFT[i + 1].owner == msg.sender) {\n                myNftCount++;\n            }\n        }\n\n        NFT[] memory nfts = new NFT[](myNftCount);\n        uint256 nftsIndex = 0;\n        for (uint256 i = 0; i < nftCount; i++) {\n            if (_idToNFT[i + 1].owner == msg.sender) {\n                nfts[nftsIndex] = _idToNFT[i + 1];\n                nftsIndex++;\n            }\n        }\n        return nfts;\n    }\n\n    function getMyListedNfts() public view returns (NFT[] memory) {\n        uint256 nftCount = _nftCount.current();\n        uint256 myListedNftCount = 0;\n        for (uint256 i = 0; i < nftCount; i++) {\n            if (\n                _idToNFT[i + 1].seller == msg.sender && _idToNFT[i + 1].listed\n            ) {\n                myListedNftCount++;\n            }\n        }\n\n        NFT[] memory nfts = new NFT[](myListedNftCount);\n        uint256 nftsIndex = 0;\n        for (uint256 i = 0; i < nftCount; i++) {\n            if (\n                _idToNFT[i + 1].seller == msg.sender && _idToNFT[i + 1].listed\n            ) {\n                nfts[nftsIndex] = _idToNFT[i + 1];\n                nftsIndex++;\n            }\n        }\n        return nfts;\n    }\n}\n",
  "sourcePath": "/Users/luxuyan/blockchain/hu-project/smart-contract/contracts/Marketplace.sol",
  "compiler": {
    "name": "solc",
    "version": "0.8.14+commit.80d49f37.Emscripten.clang"
  },
  "schemaVersion": "3.4.7",
  "updatedAt": "2022-07-31T04:37:31.857Z",
  "networkType": "ethereum",
  "devdoc": {
    "kind": "dev",
    "methods": {},
    "version": 1
  },
  "userdoc": {
    "kind": "user",
    "methods": {},
    "version": 1
  }
}