{
  "contractName": "Marketplace",
  "abi": [
    {
      "inputs": [],
      "stateMutability": "nonpayable",
      "type": "constructor"
    },
    {
      "anonymous": false,
      "inputs": [
        {
          "indexed": false,
          "internalType": "address",
          "name": "nftContract",
          "type": "address"
        },
        {
          "indexed": false,
          "internalType": "uint256",
          "name": "tokenId",
          "type": "uint256"
        },
        {
          "indexed": false,
          "internalType": "address",
          "name": "owner",
          "type": "address"
        }
      ],
      "name": "NFTCreated",
      "type": "event"
    },
    {
      "anonymous": false,
      "inputs": [
        {
          "indexed": false,
          "internalType": "address",
          "name": "nftContract",
          "type": "address"
        },
        {
          "indexed": false,
          "internalType": "uint256",
          "name": "tokenId",
          "type": "uint256"
        },
        {
          "indexed": false,
          "internalType": "address",
          "name": "seller",
          "type": "address"
        },
        {
          "indexed": false,
          "internalType": "address",
          "name": "owner",
          "type": "address"
        },
        {
          "indexed": false,
          "internalType": "uint256",
          "name": "price",
          "type": "uint256"
        }
      ],
      "name": "NFTListed",
      "type": "event"
    },
    {
      "anonymous": false,
      "inputs": [
        {
          "indexed": false,
          "internalType": "address",
          "name": "nftContract",
          "type": "address"
        },
        {
          "indexed": false,
          "internalType": "uint256",
          "name": "tokenId",
          "type": "uint256"
        },
        {
          "indexed": false,
          "internalType": "address",
          "name": "seller",
          "type": "address"
        },
        {
          "indexed": false,
          "internalType": "address",
          "name": "owner",
          "type": "address"
        },
        {
          "indexed": false,
          "internalType": "uint256",
          "name": "price",
          "type": "uint256"
        }
      ],
      "name": "NFTSold",
      "type": "event"
    },
    {
      "inputs": [],
      "name": "LISTING_FEE",
      "outputs": [
        {
          "internalType": "uint256",
          "name": "",
          "type": "uint256"
        }
      ],
      "stateMutability": "view",
      "type": "function",
      "constant": true
    },
    {
      "inputs": [
        {
          "internalType": "address",
          "name": "_nftContract",
          "type": "address"
        },
        {
          "internalType": "uint256",
          "name": "_tokenId",
          "type": "uint256"
        },
        {
          "internalType": "uint256",
          "name": "_price",
          "type": "uint256"
        }
      ],
      "name": "listNft",
      "outputs": [],
      "stateMutability": "payable",
      "type": "function",
      "payable": true
    },
    {
      "inputs": [
        {
          "internalType": "address",
          "name": "_nftContract",
          "type": "address"
        },
        {
          "internalType": "uint256",
          "name": "_tokenId",
          "type": "uint256"
        }
      ],
      "name": "createNft",
      "outputs": [],
      "stateMutability": "payable",
      "type": "function",
      "payable": true
    },
    {
      "inputs": [
        {
          "internalType": "address",
          "name": "_nftContract",
          "type": "address"
        },
        {
          "internalType": "uint256",
          "name": "_tokenId",
          "type": "uint256"
        }
      ],
      "name": "buyNft",
      "outputs": [],
      "stateMutability": "payable",
      "type": "function",
      "payable": true
    },
    {
      "inputs": [],
      "name": "getListingFee",
      "outputs": [
        {
          "internalType": "uint256",
          "name": "",
          "type": "uint256"
        }
      ],
      "stateMutability": "view",
      "type": "function",
      "constant": true
    },
    {
      "inputs": [],
      "name": "getListedNfts",
      "outputs": [
        {
          "components": [
            {
              "internalType": "address",
              "name": "nftContract",
              "type": "address"
            },
            {
              "internalType": "uint256",
              "name": "tokenId",
              "type": "uint256"
            },
            {
              "internalType": "address payable",
              "name": "seller",
              "type": "address"
            },
            {
              "internalType": "address payable",
              "name": "owner",
              "type": "address"
            },
            {
              "internalType": "uint256",
              "name": "price",
              "type": "uint256"
            },
            {
              "internalType": "bool",
              "name": "listed",
              "type": "bool"
            }
          ],
          "internalType": "struct Marketplace.NFT[]",
          "name": "",
          "type": "tuple[]"
        }
      ],
      "stateMutability": "view",
      "type": "function",
      "constant": true
    },
    {
      "inputs": [],
      "name": "getMyNfts",
      "outputs": [
        {
          "components": [
            {
              "internalType": "address",
              "name": "nftContract",
              "type": "address"
            },
            {
              "internalType": "uint256",
              "name": "tokenId",
              "type": "uint256"
            },
            {
              "internalType": "address payable",
              "name": "seller",
              "type": "address"
            },
            {
              "internalType": "address payable",
              "name": "owner",
              "type": "address"
            },
            {
              "internalType": "uint256",
              "name": "price",
              "type": "uint256"
            },
            {
              "internalType": "bool",
              "name": "listed",
              "type": "bool"
            }
          ],
          "internalType": "struct Marketplace.NFT[]",
          "name": "",
          "type": "tuple[]"
        }
      ],
      "stateMutability": "view",
      "type": "function",
      "constant": true
    },
    {
      "inputs": [],
      "name": "getMyListedNfts",
      "outputs": [
        {
          "components": [
            {
              "internalType": "address",
              "name": "nftContract",
              "type": "address"
            },
            {
              "internalType": "uint256",
              "name": "tokenId",
              "type": "uint256"
            },
            {
              "internalType": "address payable",
              "name": "seller",
              "type": "address"
            },
            {
              "internalType": "address payable",
              "name": "owner",
              "type": "address"
            },
            {
              "internalType": "uint256",
              "name": "price",
              "type": "uint256"
            },
            {
              "internalType": "bool",
              "name": "listed",
              "type": "bool"
            }
          ],
          "internalType": "struct Marketplace.NFT[]",
          "name": "",
          "type": "tuple[]"
        }
      ],
      "stateMutability": "view",
      "type": "function",
      "constant": true
    }
  ],
  "bytecode": "0x6080604052655af3107a400060035534801561001a57600080fd5b50600160008190555033600460006101000a81548173ffffffffffffffffffffffffffffffffffffffff021916908373ffffffffffffffffffffffffffffffffffffffff160217905550611b46806100736000396000f3fe60806040526004361061007b5760003560e01c80638d6cb3fb1161004e5780638d6cb3fb1461011d578063ac5105a014610148578063b8fe6abe14610164578063c922b17c1461018f5761007b565b8063047b07bf146100805780631f4cc4db146100ab5780632b86ae38146100d65780634ddf4f8f14610101575b600080fd5b34801561008c57600080fd5b506100956101ab565b6040516100a291906114a0565b60405180910390f35b3480156100b757600080fd5b506100c06104de565b6040516100cd91906114a0565b60405180910390f35b3480156100e257600080fd5b506100eb610883565b6040516100f891906114d1565b60405180910390f35b61011b60048036038101906101169190611549565b610889565b005b34801561012957600080fd5b50610132610b85565b60405161013f91906114a0565b60405180910390f35b610162600480360381019061015d9190611549565b610df7565b005b34801561017057600080fd5b50610179611031565b60405161018691906114d1565b60405180910390f35b6101a960048036038101906101a49190611589565b61103b565b005b606060006101b960026111e6565b90506000805b8281101561025e573373ffffffffffffffffffffffffffffffffffffffff16600560006001846101ef919061160b565b815260200190815260200160002060030160009054906101000a900473ffffffffffffffffffffffffffffffffffffffff1673ffffffffffffffffffffffffffffffffffffffff160361024b57818061024790611661565b9250505b808061025690611661565b9150506101bf565b5060008167ffffffffffffffff81111561027b5761027a6116a9565b5b6040519080825280602002602001820160405280156102b457816020015b6102a1611266565b8152602001906001900390816102995790505b5090506000805b848110156104d3573373ffffffffffffffffffffffffffffffffffffffff16600560006001846102eb919061160b565b815260200190815260200160002060030160009054906101000a900473ffffffffffffffffffffffffffffffffffffffff1673ffffffffffffffffffffffffffffffffffffffff16036104c05760056000600183610349919061160b565b81526020019081526020016000206040518060c00160405290816000820160009054906101000a900473ffffffffffffffffffffffffffffffffffffffff1673ffffffffffffffffffffffffffffffffffffffff1673ffffffffffffffffffffffffffffffffffffffff168152602001600182015481526020016002820160009054906101000a900473ffffffffffffffffffffffffffffffffffffffff1673ffffffffffffffffffffffffffffffffffffffff1673ffffffffffffffffffffffffffffffffffffffff1681526020016003820160009054906101000a900473ffffffffffffffffffffffffffffffffffffffff1673ffffffffffffffffffffffffffffffffffffffff1673ffffffffffffffffffffffffffffffffffffffff168152602001600482015481526020016005820160009054906101000a900460ff1615151515815250508383815181106104a6576104a56116d8565b5b602002602001018190525081806104bc90611661565b9250505b80806104cb90611661565b9150506102bb565b508194505050505090565b606060006104ec60026111e6565b90506000805b828110156105ca573373ffffffffffffffffffffffffffffffffffffffff1660056000600184610522919061160b565b815260200190815260200160002060020160009054906101000a900473ffffffffffffffffffffffffffffffffffffffff1673ffffffffffffffffffffffffffffffffffffffff161480156105a3575060056000600183610583919061160b565b815260200190815260200160002060050160009054906101000a900460ff165b156105b75781806105b390611661565b9250505b80806105c290611661565b9150506104f2565b5060008167ffffffffffffffff8111156105e7576105e66116a9565b5b60405190808252806020026020018201604052801561062057816020015b61060d611266565b8152602001906001900390816106055790505b5090506000805b84811015610878573373ffffffffffffffffffffffffffffffffffffffff1660056000600184610657919061160b565b815260200190815260200160002060020160009054906101000a900473ffffffffffffffffffffffffffffffffffffffff1673ffffffffffffffffffffffffffffffffffffffff161480156106d85750600560006001836106b8919061160b565b815260200190815260200160002060050160009054906101000a900460ff165b1561086557600560006001836106ee919061160b565b81526020019081526020016000206040518060c00160405290816000820160009054906101000a900473ffffffffffffffffffffffffffffffffffffffff1673ffffffffffffffffffffffffffffffffffffffff1673ffffffffffffffffffffffffffffffffffffffff168152602001600182015481526020016002820160009054906101000a900473ffffffffffffffffffffffffffffffffffffffff1673ffffffffffffffffffffffffffffffffffffffff1673ffffffffffffffffffffffffffffffffffffffff1681526020016003820160009054906101000a900473ffffffffffffffffffffffffffffffffffffffff1673ffffffffffffffffffffffffffffffffffffffff1673ffffffffffffffffffffffffffffffffffffffff168152602001600482015481526020016005820160009054906101000a900460ff16151515158152505083838151811061084b5761084a6116d8565b5b6020026020010181905250818061086190611661565b9250505b808061087090611661565b915050610627565b508194505050505090565b60035481565b6002600054036108ce576040517f08c379a00000000000000000000000000000000000000000000000000000000081526004016108c590611764565b60405180910390fd5b600260008190555060006005600083815260200190815260200160002090508060040154341015610934576040517f08c379a000000000000000000000000000000000000000000000000000000000815260040161092b906117f6565b60405180910390fd5b60003390508160020160009054906101000a900473ffffffffffffffffffffffffffffffffffffffff1673ffffffffffffffffffffffffffffffffffffffff166108fc349081150290604051600060405180830381858888f193505050501580156109a3573d6000803e3d6000fd5b508373ffffffffffffffffffffffffffffffffffffffff166323b872dd8360020160009054906101000a900473ffffffffffffffffffffffffffffffffffffffff168385600101546040518463ffffffff1660e01b8152600401610a0993929190611875565b600060405180830381600087803b158015610a2357600080fd5b505af1158015610a37573d6000803e3d6000fd5b50505050600460009054906101000a900473ffffffffffffffffffffffffffffffffffffffff1673ffffffffffffffffffffffffffffffffffffffff166108fc6003549081150290604051600060405180830381858888f19350505050158015610aa5573d6000803e3d6000fd5b50808260030160006101000a81548173ffffffffffffffffffffffffffffffffffffffff021916908373ffffffffffffffffffffffffffffffffffffffff16021790555060008260050160006101000a81548160ff021916908315150217905550610b1060016111f4565b7f16f1dbd97e6bf646d429ed186cce832f1f7fd9907814293b83181e9970ab7bd28483600101548460020160009054906101000a900473ffffffffffffffffffffffffffffffffffffffff168434604051610b6f9594939291906118bb565b60405180910390a1505060016000819055505050565b60606000610b9360026111e6565b90506000610ba160016111e6565b82610bac919061190e565b905060008167ffffffffffffffff811115610bca57610bc96116a9565b5b604051908082528060200260200182016040528015610c0357816020015b610bf0611266565b815260200190600190039081610be85790505b509050600080831115610ded5760005b84811015610deb5760056000600183610c2c919061160b565b815260200190815260200160002060050160009054906101000a900460ff1615610dd85760056000600183610c61919061160b565b81526020019081526020016000206040518060c00160405290816000820160009054906101000a900473ffffffffffffffffffffffffffffffffffffffff1673ffffffffffffffffffffffffffffffffffffffff1673ffffffffffffffffffffffffffffffffffffffff168152602001600182015481526020016002820160009054906101000a900473ffffffffffffffffffffffffffffffffffffffff1673ffffffffffffffffffffffffffffffffffffffff1673ffffffffffffffffffffffffffffffffffffffff1681526020016003820160009054906101000a900473ffffffffffffffffffffffffffffffffffffffff1673ffffffffffffffffffffffffffffffffffffffff1673ffffffffffffffffffffffffffffffffffffffff168152602001600482015481526020016005820160009054906101000a900460ff161515151581525050838381518110610dbe57610dbd6116d8565b5b60200260200101819052508180610dd490611661565b9250505b8080610de390611661565b915050610c13565b505b8194505050505090565b600260005403610e3c576040517f08c379a0000000000000000000000000000000000000000000000000000000008152600401610e3390611764565b60405180910390fd5b6002600081905550610e4e60026111f4565b610e5860016111f4565b6040518060c001604052808373ffffffffffffffffffffffffffffffffffffffff1681526020018281526020013373ffffffffffffffffffffffffffffffffffffffff1681526020013373ffffffffffffffffffffffffffffffffffffffff16815260200160008152602001600015158152506005600083815260200190815260200160002060008201518160000160006101000a81548173ffffffffffffffffffffffffffffffffffffffff021916908373ffffffffffffffffffffffffffffffffffffffff1602179055506020820151816001015560408201518160020160006101000a81548173ffffffffffffffffffffffffffffffffffffffff021916908373ffffffffffffffffffffffffffffffffffffffff16021790555060608201518160030160006101000a81548173ffffffffffffffffffffffffffffffffffffffff021916908373ffffffffffffffffffffffffffffffffffffffff1602179055506080820151816004015560a08201518160050160006101000a81548160ff0219169083151502179055509050507f1a73dede2f07e2c770e088c17b98db14bf7fed0bd437c06661462baae49b7cbd82823360405161101d93929190611942565b60405180910390a160016000819055505050565b6000600354905090565b600260005403611080576040517f08c379a000000000000000000000000000000000000000000000000000000000815260040161107790611764565b60405180910390fd5b6002600081905550600081116110cb576040517f08c379a00000000000000000000000000000000000000000000000000000000081526004016110c2906119c5565b60405180910390fd5b600354341461110f576040517f08c379a000000000000000000000000000000000000000000000000000000000815260040161110690611a31565b60405180910390fd5b611119600161120a565b6000600560008481526020019081526020016000209050818160040181905550338160020160006101000a81548173ffffffffffffffffffffffffffffffffffffffff021916908373ffffffffffffffffffffffffffffffffffffffff16021790555060018160050160006101000a81548160ff0219169083151502179055507fa0c6c0d02d86fdacecbaa5fdf5894bab204e31a778250474108540733a9b8d1984843330866040516111d0959493929190611a51565b60405180910390a1506001600081905550505050565b600081600001549050919050565b6001816000016000828254019250508190555050565b60008160000154905060008111611256576040517f08c379a000000000000000000000000000000000000000000000000000000000815260040161124d90611af0565b60405180910390fd5b6001810382600001819055505050565b6040518060c00160405280600073ffffffffffffffffffffffffffffffffffffffff16815260200160008152602001600073ffffffffffffffffffffffffffffffffffffffff168152602001600073ffffffffffffffffffffffffffffffffffffffff168152602001600081526020016000151581525090565b600081519050919050565b600082825260208201905092915050565b6000819050602082019050919050565b600073ffffffffffffffffffffffffffffffffffffffff82169050919050565b60006113378261130c565b9050919050565b6113478161132c565b82525050565b6000819050919050565b6113608161134d565b82525050565b60006113718261130c565b9050919050565b61138181611366565b82525050565b60008115159050919050565b61139c81611387565b82525050565b60c0820160008201516113b8600085018261133e565b5060208201516113cb6020850182611357565b5060408201516113de6040850182611378565b5060608201516113f16060850182611378565b5060808201516114046080850182611357565b5060a082015161141760a0850182611393565b50505050565b600061142983836113a2565b60c08301905092915050565b6000602082019050919050565b600061144d826112e0565b61145781856112eb565b9350611462836112fc565b8060005b8381101561149357815161147a888261141d565b975061148583611435565b925050600181019050611466565b5085935050505092915050565b600060208201905081810360008301526114ba8184611442565b905092915050565b6114cb8161134d565b82525050565b60006020820190506114e660008301846114c2565b92915050565b600080fd5b6114fa8161132c565b811461150557600080fd5b50565b600081359050611517816114f1565b92915050565b6115268161134d565b811461153157600080fd5b50565b6000813590506115438161151d565b92915050565b600080604083850312156115605761155f6114ec565b5b600061156e85828601611508565b925050602061157f85828601611534565b9150509250929050565b6000806000606084860312156115a2576115a16114ec565b5b60006115b086828701611508565b93505060206115c186828701611534565b92505060406115d286828701611534565b9150509250925092565b7f4e487b7100000000000000000000000000000000000000000000000000000000600052601160045260246000fd5b60006116168261134d565b91506116218361134d565b9250827fffffffffffffffffffffffffffffffffffffffffffffffffffffffffffffffff03821115611656576116556115dc565b5b828201905092915050565b600061166c8261134d565b91507fffffffffffffffffffffffffffffffffffffffffffffffffffffffffffffffff820361169e5761169d6115dc565b5b600182019050919050565b7f4e487b7100000000000000000000000000000000000000000000000000000000600052604160045260246000fd5b7f4e487b7100000000000000000000000000000000000000000000000000000000600052603260045260246000fd5b600082825260208201905092915050565b7f5265656e7472616e637947756172643a207265656e7472616e742063616c6c00600082015250565b600061174e601f83611707565b915061175982611718565b602082019050919050565b6000602082019050818103600083015261177d81611741565b9050919050565b7f4e6f7420656e6f75676820657468657220746f20636f7665722061736b696e6760008201527f2070726963650000000000000000000000000000000000000000000000000000602082015250565b60006117e0602683611707565b91506117eb82611784565b604082019050919050565b6000602082019050818103600083015261180f816117d3565b9050919050565b6000819050919050565b600061183b6118366118318461130c565b611816565b61130c565b9050919050565b600061184d82611820565b9050919050565b600061185f82611842565b9050919050565b61186f81611854565b82525050565b600060608201905061188a6000830186611866565b6118976020830185611866565b6118a460408301846114c2565b949350505050565b6118b58161132c565b82525050565b600060a0820190506118d060008301886118ac565b6118dd60208301876114c2565b6118ea6040830186611866565b6118f76060830185611866565b61190460808301846114c2565b9695505050505050565b60006119198261134d565b91506119248361134d565b925082821015611937576119366115dc565b5b828203905092915050565b600060608201905061195760008301866118ac565b61196460208301856114c2565b61197160408301846118ac565b949350505050565b7f5072696365206d757374206265206174206c6561737420312077656900000000600082015250565b60006119af601c83611707565b91506119ba82611979565b602082019050919050565b600060208201905081810360008301526119de816119a2565b9050919050565b7f4e6f7420656e6f75676820657468657220666f72206c697374696e6720666565600082015250565b6000611a1b602083611707565b9150611a26826119e5565b602082019050919050565b60006020820190508181036000830152611a4a81611a0e565b9050919050565b600060a082019050611a6660008301886118ac565b611a7360208301876114c2565b611a8060408301866118ac565b611a8d60608301856118ac565b611a9a60808301846114c2565b9695505050505050565b7f436f756e7465723a2064656372656d656e74206f766572666c6f770000000000600082015250565b6000611ada601b83611707565b9150611ae582611aa4565b602082019050919050565b60006020820190508181036000830152611b0981611acd565b905091905056fea26469706673582212206dd125bf1220c48fb344bcb07f732fb5b4f50c3706739a4e2f1c46027f78302564736f6c634300080e0033",
  "immutableReferences": {},
  "source": "// SPDX-License-Identifier: MIT\npragma solidity ^0.8.14;\n\nimport \"../node_modules/@openzeppelin/contracts/utils/Counters.sol\";\nimport \"../node_modules/@openzeppelin/contracts/token/ERC721/ERC721.sol\";\nimport \"../node_modules/@openzeppelin/contracts/security/ReentrancyGuard.sol\";\n\ncontract Marketplace is ReentrancyGuard {\n    using Counters for Counters.Counter;\n    Counters.Counter private _nftsSold;\n    Counters.Counter private _nftCount;\n    uint256 public LISTING_FEE = 0.0001 ether;\n    address payable private _marketOwner;\n    mapping(uint256 => NFT) private _idToNFT;\n    struct NFT {\n        address nftContract;\n        uint256 tokenId;\n        address payable seller;\n        address payable owner;\n        uint256 price;\n        bool listed;\n    }\n    event NFTCreated(\n        address nftContract,\n        uint256 tokenId,\n        address owner\n    );\n    event NFTListed(\n        address nftContract,\n        uint256 tokenId,\n        address seller,\n        address owner,\n        uint256 price\n    );\n    event NFTSold(\n        address nftContract,\n        uint256 tokenId,\n        address seller,\n        address owner,\n        uint256 price\n    );\n\n    constructor() {\n        _marketOwner = payable(msg.sender);\n    }\n\n    // List the NFT on the marketplace\n    function listNft(\n        address _nftContract,\n        uint256 _tokenId,\n        uint256 _price\n    ) public payable nonReentrant {\n        require(_price > 0, \"Price must be at least 1 wei\");\n        require(msg.value == LISTING_FEE, \"Not enough ether for listing fee\");\n\n        _nftsSold.decrement();\n\n        NFT storage nft = _idToNFT[_tokenId];\n\n        nft.price = _price;\n        nft.seller = payable(msg.sender);\n        nft.listed = true;\n\n\n        emit NFTListed(\n            _nftContract,\n            _tokenId,\n            msg.sender,\n            address(this),\n            _price\n        );\n    }\n\n    // user create NFT\n    function createNft(\n        address _nftContract,\n        uint256 _tokenId\n    ) public payable nonReentrant {\n        _nftCount.increment();\n        _nftsSold.increment();\n\n        _idToNFT[_tokenId] = NFT(\n            _nftContract,\n            _tokenId,\n            payable(msg.sender),\n            payable(msg.sender),\n            0,\n            false\n        );\n\n        emit NFTCreated(\n            _nftContract,\n            _tokenId,\n            msg.sender\n        );\n    }\n\n    // Buy an NFT\n    function buyNft(address _nftContract, uint256 _tokenId)\n        public\n        payable\n        nonReentrant\n    {\n        NFT storage nft = _idToNFT[_tokenId];\n        require(\n            msg.value >= nft.price,\n            \"Not enough ether to cover asking price\"\n        );\n\n        address payable buyer = payable(msg.sender);\n        \n        payable(nft.seller).transfer(msg.value);\n        IERC721(_nftContract).transferFrom(payable(nft.seller), buyer, nft.tokenId);\n        _marketOwner.transfer(LISTING_FEE);\n        nft.owner = buyer;\n        nft.listed = false;\n\n        _nftsSold.increment();\n        emit NFTSold(_nftContract, nft.tokenId, nft.seller, buyer, msg.value);\n    }\n\n    function getListingFee() public view returns (uint256) {\n        return LISTING_FEE;\n    }\n\n    function getListedNfts() public view returns (NFT[] memory) {\n        uint256 nftCount = _nftCount.current();\n        uint256 unsoldNftsCount = nftCount - _nftsSold.current();\n\n        NFT[] memory nfts = new NFT[](unsoldNftsCount);\n        uint256 nftsIndex = 0;\n        if (unsoldNftsCount > 0) {\n            for (uint256 i = 0; i < nftCount; i++) {\n                if (_idToNFT[i + 1].listed) {\n                    nfts[nftsIndex] = _idToNFT[i + 1];\n                    nftsIndex++;\n                }\n            }\n        }\n        return nfts;\n    }\n\n    function getMyNfts() public view returns (NFT[] memory) {\n        uint256 nftCount = _nftCount.current();\n        uint256 myNftCount = 0;\n        for (uint256 i = 0; i < nftCount; i++) {\n            if (_idToNFT[i + 1].owner == msg.sender) {\n                myNftCount++;\n            }\n        }\n\n        NFT[] memory nfts = new NFT[](myNftCount);\n        uint256 nftsIndex = 0;\n        for (uint256 i = 0; i < nftCount; i++) {\n            if (_idToNFT[i + 1].owner == msg.sender) {\n                nfts[nftsIndex] = _idToNFT[i + 1];\n                nftsIndex++;\n            }\n        }\n        return nfts;\n    }\n\n    function getMyListedNfts() public view returns (NFT[] memory) {\n        uint256 nftCount = _nftCount.current();\n        uint256 myListedNftCount = 0;\n        for (uint256 i = 0; i < nftCount; i++) {\n            if (\n                _idToNFT[i + 1].seller == msg.sender && _idToNFT[i + 1].listed\n            ) {\n                myListedNftCount++;\n            }\n        }\n\n        NFT[] memory nfts = new NFT[](myListedNftCount);\n        uint256 nftsIndex = 0;\n        for (uint256 i = 0; i < nftCount; i++) {\n            if (\n                _idToNFT[i + 1].seller == msg.sender && _idToNFT[i + 1].listed\n            ) {\n                nfts[nftsIndex] = _idToNFT[i + 1];\n                nftsIndex++;\n            }\n        }\n        return nfts;\n    }\n}\n",
  "sourcePath": "/Users/luxuyan/blockchain/hu-project/smart-contract/contracts/Marketplace.sol",
  "compiler": {
    "name": "solc",
    "version": "0.8.14+commit.80d49f37.Emscripten.clang"
  },
  "schemaVersion": "3.4.7",
  "updatedAt": "2022-11-19T22:16:38.972Z",
  "networkType": "ethereum",
  "devdoc": {
    "kind": "dev",
    "methods": {},
    "version": 1
  },
  "userdoc": {
    "kind": "user",
    "methods": {},
    "version": 1
  }
}