{
  "contractName": "Marketplace",
  "abi": [
    {
      "inputs": [],
      "stateMutability": "nonpayable",
      "type": "constructor"
    },
    {
      "anonymous": false,
      "inputs": [
        {
          "indexed": false,
          "internalType": "address",
          "name": "nftContract",
          "type": "address"
        },
        {
          "indexed": false,
          "internalType": "uint256",
          "name": "tokenId",
          "type": "uint256"
        },
        {
          "indexed": false,
          "internalType": "address",
          "name": "owner",
          "type": "address"
        }
      ],
      "name": "NFTCreated",
      "type": "event"
    },
    {
      "anonymous": false,
      "inputs": [
        {
          "indexed": false,
          "internalType": "address",
          "name": "nftContract",
          "type": "address"
        },
        {
          "indexed": false,
          "internalType": "uint256",
          "name": "tokenId",
          "type": "uint256"
        },
        {
          "indexed": false,
          "internalType": "address",
          "name": "seller",
          "type": "address"
        },
        {
          "indexed": false,
          "internalType": "address",
          "name": "owner",
          "type": "address"
        },
        {
          "indexed": false,
          "internalType": "uint256",
          "name": "price",
          "type": "uint256"
        }
      ],
      "name": "NFTListed",
      "type": "event"
    },
    {
      "anonymous": false,
      "inputs": [
        {
          "indexed": false,
          "internalType": "address",
          "name": "nftContract",
          "type": "address"
        },
        {
          "indexed": false,
          "internalType": "uint256",
          "name": "tokenId",
          "type": "uint256"
        },
        {
          "indexed": false,
          "internalType": "address",
          "name": "seller",
          "type": "address"
        },
        {
          "indexed": false,
          "internalType": "address",
          "name": "owner",
          "type": "address"
        },
        {
          "indexed": false,
          "internalType": "uint256",
          "name": "price",
          "type": "uint256"
        }
      ],
      "name": "NFTSold",
      "type": "event"
    },
    {
      "inputs": [],
      "name": "LISTING_FEE",
      "outputs": [
        {
          "internalType": "uint256",
          "name": "",
          "type": "uint256"
        }
      ],
      "stateMutability": "view",
      "type": "function",
      "constant": true
    },
    {
      "inputs": [
        {
          "internalType": "address",
          "name": "_nftContract",
          "type": "address"
        },
        {
          "internalType": "uint256",
          "name": "_tokenId",
          "type": "uint256"
        },
        {
          "internalType": "uint256",
          "name": "_price",
          "type": "uint256"
        }
      ],
      "name": "listNft",
      "outputs": [],
      "stateMutability": "payable",
      "type": "function",
      "payable": true
    },
    {
      "inputs": [
        {
          "internalType": "address",
          "name": "_nftContract",
          "type": "address"
        },
        {
          "internalType": "uint256",
          "name": "_tokenId",
          "type": "uint256"
        }
      ],
      "name": "createNft",
      "outputs": [],
      "stateMutability": "payable",
      "type": "function",
      "payable": true
    },
    {
      "inputs": [
        {
          "internalType": "address",
          "name": "_nftContract",
          "type": "address"
        },
        {
          "internalType": "uint256",
          "name": "_tokenId",
          "type": "uint256"
        }
      ],
      "name": "buyNft",
      "outputs": [],
      "stateMutability": "payable",
      "type": "function",
      "payable": true
    },
    {
      "inputs": [
        {
          "internalType": "address",
          "name": "_nftContract",
          "type": "address"
        },
        {
          "internalType": "uint256",
          "name": "_tokenId",
          "type": "uint256"
        },
        {
          "internalType": "uint256",
          "name": "_price",
          "type": "uint256"
        }
      ],
      "name": "resellNft",
      "outputs": [],
      "stateMutability": "payable",
      "type": "function",
      "payable": true
    },
    {
      "inputs": [],
      "name": "getListingFee",
      "outputs": [
        {
          "internalType": "uint256",
          "name": "",
          "type": "uint256"
        }
      ],
      "stateMutability": "view",
      "type": "function",
      "constant": true
    },
    {
      "inputs": [],
      "name": "getListedNfts",
      "outputs": [
        {
          "components": [
            {
              "internalType": "address",
              "name": "nftContract",
              "type": "address"
            },
            {
              "internalType": "uint256",
              "name": "tokenId",
              "type": "uint256"
            },
            {
              "internalType": "address payable",
              "name": "seller",
              "type": "address"
            },
            {
              "internalType": "address payable",
              "name": "owner",
              "type": "address"
            },
            {
              "internalType": "uint256",
              "name": "price",
              "type": "uint256"
            },
            {
              "internalType": "bool",
              "name": "listed",
              "type": "bool"
            }
          ],
          "internalType": "struct Marketplace.NFT[]",
          "name": "",
          "type": "tuple[]"
        }
      ],
      "stateMutability": "view",
      "type": "function",
      "constant": true
    },
    {
      "inputs": [],
      "name": "getMyNfts",
      "outputs": [
        {
          "components": [
            {
              "internalType": "address",
              "name": "nftContract",
              "type": "address"
            },
            {
              "internalType": "uint256",
              "name": "tokenId",
              "type": "uint256"
            },
            {
              "internalType": "address payable",
              "name": "seller",
              "type": "address"
            },
            {
              "internalType": "address payable",
              "name": "owner",
              "type": "address"
            },
            {
              "internalType": "uint256",
              "name": "price",
              "type": "uint256"
            },
            {
              "internalType": "bool",
              "name": "listed",
              "type": "bool"
            }
          ],
          "internalType": "struct Marketplace.NFT[]",
          "name": "",
          "type": "tuple[]"
        }
      ],
      "stateMutability": "view",
      "type": "function",
      "constant": true
    },
    {
      "inputs": [],
      "name": "getMyListedNfts",
      "outputs": [
        {
          "components": [
            {
              "internalType": "address",
              "name": "nftContract",
              "type": "address"
            },
            {
              "internalType": "uint256",
              "name": "tokenId",
              "type": "uint256"
            },
            {
              "internalType": "address payable",
              "name": "seller",
              "type": "address"
            },
            {
              "internalType": "address payable",
              "name": "owner",
              "type": "address"
            },
            {
              "internalType": "uint256",
              "name": "price",
              "type": "uint256"
            },
            {
              "internalType": "bool",
              "name": "listed",
              "type": "bool"
            }
          ],
          "internalType": "struct Marketplace.NFT[]",
          "name": "",
          "type": "tuple[]"
        }
      ],
      "stateMutability": "view",
      "type": "function",
      "constant": true
    }
  ],
  "bytecode": "0x6080604052655af3107a400060035534801561001a57600080fd5b50600160008190555033600460006101000a81548173ffffffffffffffffffffffffffffffffffffffff021916908373ffffffffffffffffffffffffffffffffffffffff160217905550611e01806100736000396000f3fe6080604052600436106100865760003560e01c80634ddf4f8f116100595780634ddf4f8f146101285780638d6cb3fb14610144578063ac5105a01461016f578063b8fe6abe1461018b578063c922b17c146101b657610086565b8063047b07bf1461008b5780631f4cc4db146100b65780632b86ae38146100e157806334f5b6241461010c575b600080fd5b34801561009757600080fd5b506100a06101d2565b6040516100ad9190611724565b60405180910390f35b3480156100c257600080fd5b506100cb610505565b6040516100d89190611724565b60405180910390f35b3480156100ed57600080fd5b506100f66108aa565b6040516101039190611755565b60405180910390f35b610126600480360381019061012191906117cd565b6108b0565b005b610142600480360381019061013d9190611820565b610b0d565b005b34801561015057600080fd5b50610159610e09565b6040516101669190611724565b60405180910390f35b61018960048036038101906101849190611820565b61107b565b005b34801561019757600080fd5b506101a06112b5565b6040516101ad9190611755565b60405180910390f35b6101d060048036038101906101cb91906117cd565b6112bf565b005b606060006101e0600261146a565b90506000805b82811015610285573373ffffffffffffffffffffffffffffffffffffffff1660056000600184610216919061188f565b815260200190815260200160002060030160009054906101000a900473ffffffffffffffffffffffffffffffffffffffff1673ffffffffffffffffffffffffffffffffffffffff160361027257818061026e906118e5565b9250505b808061027d906118e5565b9150506101e6565b5060008167ffffffffffffffff8111156102a2576102a161192d565b5b6040519080825280602002602001820160405280156102db57816020015b6102c86114ea565b8152602001906001900390816102c05790505b5090506000805b848110156104fa573373ffffffffffffffffffffffffffffffffffffffff1660056000600184610312919061188f565b815260200190815260200160002060030160009054906101000a900473ffffffffffffffffffffffffffffffffffffffff1673ffffffffffffffffffffffffffffffffffffffff16036104e75760056000600183610370919061188f565b81526020019081526020016000206040518060c00160405290816000820160009054906101000a900473ffffffffffffffffffffffffffffffffffffffff1673ffffffffffffffffffffffffffffffffffffffff1673ffffffffffffffffffffffffffffffffffffffff168152602001600182015481526020016002820160009054906101000a900473ffffffffffffffffffffffffffffffffffffffff1673ffffffffffffffffffffffffffffffffffffffff1673ffffffffffffffffffffffffffffffffffffffff1681526020016003820160009054906101000a900473ffffffffffffffffffffffffffffffffffffffff1673ffffffffffffffffffffffffffffffffffffffff1673ffffffffffffffffffffffffffffffffffffffff168152602001600482015481526020016005820160009054906101000a900460ff1615151515815250508383815181106104cd576104cc61195c565b5b602002602001018190525081806104e3906118e5565b9250505b80806104f2906118e5565b9150506102e2565b508194505050505090565b60606000610513600261146a565b90506000805b828110156105f1573373ffffffffffffffffffffffffffffffffffffffff1660056000600184610549919061188f565b815260200190815260200160002060020160009054906101000a900473ffffffffffffffffffffffffffffffffffffffff1673ffffffffffffffffffffffffffffffffffffffff161480156105ca5750600560006001836105aa919061188f565b815260200190815260200160002060050160009054906101000a900460ff165b156105de5781806105da906118e5565b9250505b80806105e9906118e5565b915050610519565b5060008167ffffffffffffffff81111561060e5761060d61192d565b5b60405190808252806020026020018201604052801561064757816020015b6106346114ea565b81526020019060019003908161062c5790505b5090506000805b8481101561089f573373ffffffffffffffffffffffffffffffffffffffff166005600060018461067e919061188f565b815260200190815260200160002060020160009054906101000a900473ffffffffffffffffffffffffffffffffffffffff1673ffffffffffffffffffffffffffffffffffffffff161480156106ff5750600560006001836106df919061188f565b815260200190815260200160002060050160009054906101000a900460ff165b1561088c5760056000600183610715919061188f565b81526020019081526020016000206040518060c00160405290816000820160009054906101000a900473ffffffffffffffffffffffffffffffffffffffff1673ffffffffffffffffffffffffffffffffffffffff1673ffffffffffffffffffffffffffffffffffffffff168152602001600182015481526020016002820160009054906101000a900473ffffffffffffffffffffffffffffffffffffffff1673ffffffffffffffffffffffffffffffffffffffff1673ffffffffffffffffffffffffffffffffffffffff1681526020016003820160009054906101000a900473ffffffffffffffffffffffffffffffffffffffff1673ffffffffffffffffffffffffffffffffffffffff1673ffffffffffffffffffffffffffffffffffffffff168152602001600482015481526020016005820160009054906101000a900460ff1615151515815250508383815181106108725761087161195c565b5b60200260200101819052508180610888906118e5565b9250505b8080610897906118e5565b91505061064e565b508194505050505090565b60035481565b6002600054036108f5576040517f08c379a00000000000000000000000000000000000000000000000000000000081526004016108ec906119e8565b60405180910390fd5b600260008190555060008111610940576040517f08c379a000000000000000000000000000000000000000000000000000000000815260040161093790611a54565b60405180910390fd5b6003543414610984576040517f08c379a000000000000000000000000000000000000000000000000000000000815260040161097b90611ac0565b60405180910390fd5b8273ffffffffffffffffffffffffffffffffffffffff166323b872dd3330856040518463ffffffff1660e01b81526004016109c193929190611aef565b600060405180830381600087803b1580156109db57600080fd5b505af11580156109ef573d6000803e3d6000fd5b505050506000600560008481526020019081526020016000209050338160020160006101000a81548173ffffffffffffffffffffffffffffffffffffffff021916908373ffffffffffffffffffffffffffffffffffffffff160217905550308160030160006101000a81548173ffffffffffffffffffffffffffffffffffffffff021916908373ffffffffffffffffffffffffffffffffffffffff16021790555060018160050160006101000a81548160ff021916908315150217905550818160040181905550610ac06001611478565b7fa0c6c0d02d86fdacecbaa5fdf5894bab204e31a778250474108540733a9b8d198484333086604051610af7959493929190611b26565b60405180910390a1506001600081905550505050565b600260005403610b52576040517f08c379a0000000000000000000000000000000000000000000000000000000008152600401610b49906119e8565b60405180910390fd5b600260008190555060006005600083815260200190815260200160002090508060040154341015610bb8576040517f08c379a0000000000000000000000000000000000000000000000000000000008152600401610baf90611beb565b60405180910390fd5b60003390508160020160009054906101000a900473ffffffffffffffffffffffffffffffffffffffff1673ffffffffffffffffffffffffffffffffffffffff166108fc349081150290604051600060405180830381858888f19350505050158015610c27573d6000803e3d6000fd5b508373ffffffffffffffffffffffffffffffffffffffff166323b872dd8360020160009054906101000a900473ffffffffffffffffffffffffffffffffffffffff168385600101546040518463ffffffff1660e01b8152600401610c8d93929190611c6a565b600060405180830381600087803b158015610ca757600080fd5b505af1158015610cbb573d6000803e3d6000fd5b50505050600460009054906101000a900473ffffffffffffffffffffffffffffffffffffffff1673ffffffffffffffffffffffffffffffffffffffff166108fc6003549081150290604051600060405180830381858888f19350505050158015610d29573d6000803e3d6000fd5b50808260030160006101000a81548173ffffffffffffffffffffffffffffffffffffffff021916908373ffffffffffffffffffffffffffffffffffffffff16021790555060008260050160006101000a81548160ff021916908315150217905550610d9460016114d4565b7f16f1dbd97e6bf646d429ed186cce832f1f7fd9907814293b83181e9970ab7bd28483600101548460020160009054906101000a900473ffffffffffffffffffffffffffffffffffffffff168434604051610df3959493929190611ca1565b60405180910390a1505060016000819055505050565b60606000610e17600261146a565b90506000610e25600161146a565b82610e309190611cf4565b905060008167ffffffffffffffff811115610e4e57610e4d61192d565b5b604051908082528060200260200182016040528015610e8757816020015b610e746114ea565b815260200190600190039081610e6c5790505b5090506000808311156110715760005b8481101561106f5760056000600183610eb0919061188f565b815260200190815260200160002060050160009054906101000a900460ff161561105c5760056000600183610ee5919061188f565b81526020019081526020016000206040518060c00160405290816000820160009054906101000a900473ffffffffffffffffffffffffffffffffffffffff1673ffffffffffffffffffffffffffffffffffffffff1673ffffffffffffffffffffffffffffffffffffffff168152602001600182015481526020016002820160009054906101000a900473ffffffffffffffffffffffffffffffffffffffff1673ffffffffffffffffffffffffffffffffffffffff1673ffffffffffffffffffffffffffffffffffffffff1681526020016003820160009054906101000a900473ffffffffffffffffffffffffffffffffffffffff1673ffffffffffffffffffffffffffffffffffffffff1673ffffffffffffffffffffffffffffffffffffffff168152602001600482015481526020016005820160009054906101000a900460ff1615151515815250508383815181106110425761104161195c565b5b60200260200101819052508180611058906118e5565b9250505b8080611067906118e5565b915050610e97565b505b8194505050505090565b6002600054036110c0576040517f08c379a00000000000000000000000000000000000000000000000000000000081526004016110b7906119e8565b60405180910390fd5b60026000819055506110d260026114d4565b6110dc60016114d4565b6040518060c001604052808373ffffffffffffffffffffffffffffffffffffffff1681526020018281526020013373ffffffffffffffffffffffffffffffffffffffff1681526020013373ffffffffffffffffffffffffffffffffffffffff16815260200160008152602001600015158152506005600083815260200190815260200160002060008201518160000160006101000a81548173ffffffffffffffffffffffffffffffffffffffff021916908373ffffffffffffffffffffffffffffffffffffffff1602179055506020820151816001015560408201518160020160006101000a81548173ffffffffffffffffffffffffffffffffffffffff021916908373ffffffffffffffffffffffffffffffffffffffff16021790555060608201518160030160006101000a81548173ffffffffffffffffffffffffffffffffffffffff021916908373ffffffffffffffffffffffffffffffffffffffff1602179055506080820151816004015560a08201518160050160006101000a81548160ff0219169083151502179055509050507f1a73dede2f07e2c770e088c17b98db14bf7fed0bd437c06661462baae49b7cbd8282336040516112a193929190611d28565b60405180910390a160016000819055505050565b6000600354905090565b600260005403611304576040517f08c379a00000000000000000000000000000000000000000000000000000000081526004016112fb906119e8565b60405180910390fd5b60026000819055506000811161134f576040517f08c379a000000000000000000000000000000000000000000000000000000000815260040161134690611a54565b60405180910390fd5b6003543414611393576040517f08c379a000000000000000000000000000000000000000000000000000000000815260040161138a90611ac0565b60405180910390fd5b61139d6001611478565b6000600560008481526020019081526020016000209050818160040181905550338160020160006101000a81548173ffffffffffffffffffffffffffffffffffffffff021916908373ffffffffffffffffffffffffffffffffffffffff16021790555060018160050160006101000a81548160ff0219169083151502179055507fa0c6c0d02d86fdacecbaa5fdf5894bab204e31a778250474108540733a9b8d198484333086604051611454959493929190611b26565b60405180910390a1506001600081905550505050565b600081600001549050919050565b600081600001549050600081116114c4576040517f08c379a00000000000000000000000000000000000000000000000000000000081526004016114bb90611dab565b60405180910390fd5b6001810382600001819055505050565b6001816000016000828254019250508190555050565b6040518060c00160405280600073ffffffffffffffffffffffffffffffffffffffff16815260200160008152602001600073ffffffffffffffffffffffffffffffffffffffff168152602001600073ffffffffffffffffffffffffffffffffffffffff168152602001600081526020016000151581525090565b600081519050919050565b600082825260208201905092915050565b6000819050602082019050919050565b600073ffffffffffffffffffffffffffffffffffffffff82169050919050565b60006115bb82611590565b9050919050565b6115cb816115b0565b82525050565b6000819050919050565b6115e4816115d1565b82525050565b60006115f582611590565b9050919050565b611605816115ea565b82525050565b60008115159050919050565b6116208161160b565b82525050565b60c08201600082015161163c60008501826115c2565b50602082015161164f60208501826115db565b50604082015161166260408501826115fc565b50606082015161167560608501826115fc565b50608082015161168860808501826115db565b5060a082015161169b60a0850182611617565b50505050565b60006116ad8383611626565b60c08301905092915050565b6000602082019050919050565b60006116d182611564565b6116db818561156f565b93506116e683611580565b8060005b838110156117175781516116fe88826116a1565b9750611709836116b9565b9250506001810190506116ea565b5085935050505092915050565b6000602082019050818103600083015261173e81846116c6565b905092915050565b61174f816115d1565b82525050565b600060208201905061176a6000830184611746565b92915050565b600080fd5b61177e816115b0565b811461178957600080fd5b50565b60008135905061179b81611775565b92915050565b6117aa816115d1565b81146117b557600080fd5b50565b6000813590506117c7816117a1565b92915050565b6000806000606084860312156117e6576117e5611770565b5b60006117f48682870161178c565b9350506020611805868287016117b8565b9250506040611816868287016117b8565b9150509250925092565b6000806040838503121561183757611836611770565b5b60006118458582860161178c565b9250506020611856858286016117b8565b9150509250929050565b7f4e487b7100000000000000000000000000000000000000000000000000000000600052601160045260246000fd5b600061189a826115d1565b91506118a5836115d1565b9250827fffffffffffffffffffffffffffffffffffffffffffffffffffffffffffffffff038211156118da576118d9611860565b5b828201905092915050565b60006118f0826115d1565b91507fffffffffffffffffffffffffffffffffffffffffffffffffffffffffffffffff820361192257611921611860565b5b600182019050919050565b7f4e487b7100000000000000000000000000000000000000000000000000000000600052604160045260246000fd5b7f4e487b7100000000000000000000000000000000000000000000000000000000600052603260045260246000fd5b600082825260208201905092915050565b7f5265656e7472616e637947756172643a207265656e7472616e742063616c6c00600082015250565b60006119d2601f8361198b565b91506119dd8261199c565b602082019050919050565b60006020820190508181036000830152611a01816119c5565b9050919050565b7f5072696365206d757374206265206174206c6561737420312077656900000000600082015250565b6000611a3e601c8361198b565b9150611a4982611a08565b602082019050919050565b60006020820190508181036000830152611a6d81611a31565b9050919050565b7f4e6f7420656e6f75676820657468657220666f72206c697374696e6720666565600082015250565b6000611aaa60208361198b565b9150611ab582611a74565b602082019050919050565b60006020820190508181036000830152611ad981611a9d565b9050919050565b611ae9816115b0565b82525050565b6000606082019050611b046000830186611ae0565b611b116020830185611ae0565b611b1e6040830184611746565b949350505050565b600060a082019050611b3b6000830188611ae0565b611b486020830187611746565b611b556040830186611ae0565b611b626060830185611ae0565b611b6f6080830184611746565b9695505050505050565b7f4e6f7420656e6f75676820657468657220746f20636f7665722061736b696e6760008201527f2070726963650000000000000000000000000000000000000000000000000000602082015250565b6000611bd560268361198b565b9150611be082611b79565b604082019050919050565b60006020820190508181036000830152611c0481611bc8565b9050919050565b6000819050919050565b6000611c30611c2b611c2684611590565b611c0b565b611590565b9050919050565b6000611c4282611c15565b9050919050565b6000611c5482611c37565b9050919050565b611c6481611c49565b82525050565b6000606082019050611c7f6000830186611c5b565b611c8c6020830185611c5b565b611c996040830184611746565b949350505050565b600060a082019050611cb66000830188611ae0565b611cc36020830187611746565b611cd06040830186611c5b565b611cdd6060830185611c5b565b611cea6080830184611746565b9695505050505050565b6000611cff826115d1565b9150611d0a836115d1565b925082821015611d1d57611d1c611860565b5b828203905092915050565b6000606082019050611d3d6000830186611ae0565b611d4a6020830185611746565b611d576040830184611ae0565b949350505050565b7f436f756e7465723a2064656372656d656e74206f766572666c6f770000000000600082015250565b6000611d95601b8361198b565b9150611da082611d5f565b602082019050919050565b60006020820190508181036000830152611dc481611d88565b905091905056fea2646970667358221220ea0ca13dd7d2bb889f6a11153dfb1ead12d469def615781d03b9423121df8d0e64736f6c634300080e0033",
  "immutableReferences": {},
  "source": "// SPDX-License-Identifier: MIT\npragma solidity ^0.8.14;\n\nimport \"../node_modules/@openzeppelin/contracts/utils/Counters.sol\";\nimport \"../node_modules/@openzeppelin/contracts/token/ERC721/ERC721.sol\";\nimport \"../node_modules/@openzeppelin/contracts/security/ReentrancyGuard.sol\";\n\ncontract Marketplace is ReentrancyGuard {\n    using Counters for Counters.Counter;\n    Counters.Counter private _nftsSold;\n    Counters.Counter private _nftCount;\n    uint256 public LISTING_FEE = 0.0001 ether;\n    address payable private _marketOwner;\n    mapping(uint256 => NFT) private _idToNFT;\n    struct NFT {\n        address nftContract;\n        uint256 tokenId;\n        address payable seller;\n        address payable owner;\n        uint256 price;\n        bool listed;\n    }\n    event NFTCreated(\n        address nftContract,\n        uint256 tokenId,\n        address owner\n    );\n    event NFTListed(\n        address nftContract,\n        uint256 tokenId,\n        address seller,\n        address owner,\n        uint256 price\n    );\n    event NFTSold(\n        address nftContract,\n        uint256 tokenId,\n        address seller,\n        address owner,\n        uint256 price\n    );\n\n    constructor() {\n        _marketOwner = payable(msg.sender);\n    }\n\n    // List the NFT on the marketplace\n    function listNft(\n        address _nftContract,\n        uint256 _tokenId,\n        uint256 _price\n    ) public payable nonReentrant {\n        require(_price > 0, \"Price must be at least 1 wei\");\n        require(msg.value == LISTING_FEE, \"Not enough ether for listing fee\");\n\n        _nftsSold.decrement();\n\n        NFT storage nft = _idToNFT[_tokenId];\n\n        nft.price = _price;\n        nft.seller = payable(msg.sender);\n        nft.listed = true;\n\n\n        emit NFTListed(\n            _nftContract,\n            _tokenId,\n            msg.sender,\n            address(this),\n            _price\n        );\n    }\n\n    // user create NFT\n    function createNft(\n        address _nftContract,\n        uint256 _tokenId\n    ) public payable nonReentrant {\n        _nftCount.increment();\n        _nftsSold.increment();\n\n        // IERC721(_nftContract).transferFrom(address(this), msg.sender, _tokenId);\n\n        _idToNFT[_tokenId] = NFT(\n            _nftContract,\n            _tokenId,\n            payable(msg.sender),\n            payable(msg.sender),\n            0,\n            false\n        );\n\n        emit NFTCreated(\n            _nftContract,\n            _tokenId,\n            msg.sender\n        );\n    }\n\n    // Buy an NFT\n    function buyNft(address _nftContract, uint256 _tokenId)\n        public\n        payable\n        nonReentrant\n    {\n        NFT storage nft = _idToNFT[_tokenId];\n        require(\n            msg.value >= nft.price,\n            \"Not enough ether to cover asking price\"\n        );\n\n        address payable buyer = payable(msg.sender);\n        \n        payable(nft.seller).transfer(msg.value);\n        IERC721(_nftContract).transferFrom(payable(nft.seller), buyer, nft.tokenId);\n        _marketOwner.transfer(LISTING_FEE);\n        nft.owner = buyer;\n        nft.listed = false;\n\n        _nftsSold.increment();\n        emit NFTSold(_nftContract, nft.tokenId, nft.seller, buyer, msg.value);\n    }\n\n    // Resell an NFT purchased from the marketplace\n    function resellNft(\n        address _nftContract,\n        uint256 _tokenId,\n        uint256 _price\n    ) public payable nonReentrant {\n        require(_price > 0, \"Price must be at least 1 wei\");\n        require(msg.value == LISTING_FEE, \"Not enough ether for listing fee\");\n\n        IERC721(_nftContract).transferFrom(msg.sender, address(this), _tokenId);\n\n        NFT storage nft = _idToNFT[_tokenId];\n        nft.seller = payable(msg.sender);\n        nft.owner = payable(address(this));\n        nft.listed = true;\n        nft.price = _price;\n\n        _nftsSold.decrement();\n        emit NFTListed(\n            _nftContract,\n            _tokenId,\n            msg.sender,\n            address(this),\n            _price\n        );\n    }\n\n    function getListingFee() public view returns (uint256) {\n        return LISTING_FEE;\n    }\n\n    function getListedNfts() public view returns (NFT[] memory) {\n        uint256 nftCount = _nftCount.current();\n        uint256 unsoldNftsCount = nftCount - _nftsSold.current();\n\n        NFT[] memory nfts = new NFT[](unsoldNftsCount);\n        uint256 nftsIndex = 0;\n        if (unsoldNftsCount > 0) {\n            for (uint256 i = 0; i < nftCount; i++) {\n                if (_idToNFT[i + 1].listed) {\n                    nfts[nftsIndex] = _idToNFT[i + 1];\n                    nftsIndex++;\n                }\n            }\n        }\n        return nfts;\n    }\n\n    function getMyNfts() public view returns (NFT[] memory) {\n        uint256 nftCount = _nftCount.current();\n        uint256 myNftCount = 0;\n        for (uint256 i = 0; i < nftCount; i++) {\n            if (_idToNFT[i + 1].owner == msg.sender) {\n                myNftCount++;\n            }\n        }\n\n        NFT[] memory nfts = new NFT[](myNftCount);\n        uint256 nftsIndex = 0;\n        for (uint256 i = 0; i < nftCount; i++) {\n            if (_idToNFT[i + 1].owner == msg.sender) {\n                nfts[nftsIndex] = _idToNFT[i + 1];\n                nftsIndex++;\n            }\n        }\n        return nfts;\n    }\n\n    function getMyListedNfts() public view returns (NFT[] memory) {\n        uint256 nftCount = _nftCount.current();\n        uint256 myListedNftCount = 0;\n        for (uint256 i = 0; i < nftCount; i++) {\n            if (\n                _idToNFT[i + 1].seller == msg.sender && _idToNFT[i + 1].listed\n            ) {\n                myListedNftCount++;\n            }\n        }\n\n        NFT[] memory nfts = new NFT[](myListedNftCount);\n        uint256 nftsIndex = 0;\n        for (uint256 i = 0; i < nftCount; i++) {\n            if (\n                _idToNFT[i + 1].seller == msg.sender && _idToNFT[i + 1].listed\n            ) {\n                nfts[nftsIndex] = _idToNFT[i + 1];\n                nftsIndex++;\n            }\n        }\n        return nfts;\n    }\n}\n",
  "sourcePath": "/Users/luxuyan/blockchain/hu-project/smart-contract/contracts/Marketplace.sol",
  "compiler": {
    "name": "solc",
    "version": "0.8.14+commit.80d49f37.Emscripten.clang"
  },
  "schemaVersion": "3.4.7",
  "updatedAt": "2022-08-01T04:56:33.199Z",
  "networkType": "ethereum",
  "devdoc": {
    "kind": "dev",
    "methods": {},
    "version": 1
  },
  "userdoc": {
    "kind": "user",
    "methods": {},
    "version": 1
  }
}